:03000000020D41AD
:0C0D4100787FE4F6D8FD758139020D883A
:0C0C5E008E148F158C168D178A188B19B8
:100C6A00751A10AC18AD191209088C148D15E517F0
:100C7A0045167004FE7F0122E51620E70FE51725C9
:100C8A00E0F517E51633F516151A80ECE485151EFE
:100C9A0085141DF51CF51BE51725E0F517E5163338
:100CAA00F516E5174516700CD3E51A648094815041
:100CBA0003020D3CAF1EAE1DAD1CAC1BA804A9055A
:100CCA00AA06AB07120A0CC006C007AE18AF19ABCA
:100CDA0007AA06E4F9F8D007D006120A97AC00ADC5
:100CEA0001AE02AF038F1E8E1D8D1C8C1BE51630C4
:100CFA00E730AE14AF15E4FCFD120A0CC006C007BB
:100D0A00AE18AF19AB07AA06E4F9F8D007D0061255
:100D1A000A97AC00AD01AE02AF038F1E8E1D8D1C6B
:100D2A008C1BE51725E0F517E51633F516151A029B
:060D3A000CACAE1DAF1E63
:010D40002290
:10109000ED4C600DAB05AA04120908AE02AF038047
:0110A000EF60
:0110A100222C
:040B3F008C198D1A66
:100B4300E4F51EF51DF51CF51B752201F521F520B5
:100B5300F51F851A26851925F524F5238F2A8E2955
:100B6300F528F527AF2AAE29AD28AC27EC4D4E4F1B
:100B73007003020C22AB2AAA29A928A827AF26AE04
:100B830025AD24AC23120FBE8F2E8E2D8D2C8C2BD6
:100B9300852232852131852030851F2FAF22AE215A
:100BA300AD20AC1FAB2EAA2DA92CA82B120A0CA882
:100BB30004A905AA06C3E51E9FF522E51D9AF521A2
:100BC300E51C99F520E51B98F51F85321E85311D1F
:100BD30085301C852F1B852A328529318528308550
:100BE300272FAF2AAE29AD28AC27AB2EAA2DA92CCF
:100BF300A82B120A0CA804A905AA06C3E5269FF58B
:100C03002AE5259AF529E52499F528E52398F5277A
:100C1300853226853125853024852F23020B67E411
:100C23007F01FEFDFCAB26AA25A924A823D3120B22
:100C3300294004E4FEFF22AC1BEC335019E4FCFD15
:100C4300E51E251AF51EE51D3519F51DED351CF5B7
:0A0C53001CEC351BF51BAE1DAF1E97
:010C5D002274
:10100200EFD3940150037F0022EF64026003BF0319
:10101200037F0122EF20E0037F0022EF24FFFDE4A3
:1010220034FFFCEFFB7A007F027E00120C5EEF645D
:0A103200014E70037F01227F0022AF
:0310D50000000018
:1010A200759850438920758DFD758BFDD28ED2992E
:0110B200221B
:0810C1008F993099FDC29922BC
:0810C9003098FDC298AF992296
:0E10B300AD07AC06AF041210C1AF050210C1AC
:100DCD00E4FE780E7C00FD7BFF7A1079D57F03124F
:100DDD0008D0E4FDFCFE1210C98F11E511640D6001
:100DED0005E511B40A05EE7011FF22E51124D0FFBF
:100DFD00740E2EF8A6070EBE03DCBE01067C00ADF8
:100E0D000E8035BE0211E50E75F00AA47C00250F8B
:100E1D00FDEC35F0FC8021BE031EE50F75F00AA434
:100E2D00FDACF0E50E75F064A42DFFE5F03CFE7C05
:100E3D0000EF2510FDEC3EFCD3ED94FFEC9400404B
:070E4D00047FFF8002AF05E6
:010E5400227B
:080E55008F0E8A108B11A90514
:100E5D007C007E001208F68E158F16E924FFFFE444
:100E6D0034FFAD07FCE50E24FFFFE434FFFE12084E
:100E7D00F68E178F18D3E5119401E51094004011EB
:100E8D00AD18AC17AF11AE10121090EF64014E609B
:100E9D00037F0022AD18AC17AF11AE10120B3FAB94
:100EAD0012AA13A914E5158516F01209C0AB12AAE2
:100EBD0013A914900002E5108511F01209DF9000BE
:090ECD0004EE8FF01209DF7F0131
:010ED60022F9
:10103C008B0E8A0F8910AB11AA12A9139000021201
:10104C000988FDACF012095DFBAAF0120C5EAB0E28
:0A105C00AA0FA910EE8FF00209C0E0
:101066008B0E8A0F8910AB11AA12A91390000412D5
:101076000988FDACF012095DFBAAF0120C5EAB0EFE
:0A108600AA0FA910EE8FF00209C0B6
:0310D100013300E8
:100ED700E53364016071120DCD8F0C121002BF0152
:100EE7000BC2A07F531210C17F50801ED2A07F5229
:100EF7001210C180E1120DCD8F0D121002BF010635
:100F0700C2A07F51803CD2A07F521210C180E6124E
:100F17000DCDAB077A00751200751300751434AD4B
:100F27000DAF0C120E55BF0115C2A17F451210C19E
:100F37007F4F1210C17F4B1210C175330122D2A10E
:070F47007F521210C180C8A7
:010F4E002280
:100F4F001210A2C2A0C2A120B309E53370F9120E8C
:100F5F00D780F4E533B401EF20B4271210C9EF3373
:100F6F0095E0F5088F097511007512007513347B24
:100F7F00007A00790AFE12103CAF0BAE0A1210B3C2
:100F8F0080C51210C9EF3395E0F5088F09850980E8
:100F9F007511007512007513347B007A00790AAF52
:0F0FAF0009AE08121066AF0BAE0A1210B380988D
:100D4D00020F4FE493A3F8E493A34003F68001F25E
:100D5D0008DFF48029E493A3F85407240CC8C333A7
:100D6D00C4540F4420C8834004F456800146F6DF76
:100D7D00E4800B01020408102040809010D1E47E25
:100D8D00019360BCA3FF543F30E509541FFEE4936B
:100D9D00A360010ECF54C025E060A840B8E493A332
:100DAD00FAE493A3F8E493A3C8C582C8CAC583CA5D
:100DBD00F0A3C8C582C8CAC583CADFE9DEE780BE15
:0110D400001B
:10080000E709F608DFFA8046E709F208DFFA803EDA
:1008100088828C83E709F0A3DFFA8032E309F608C7
:10082000DFFA8078E309F208DFFA807088828C832F
:10083000E309F0A3DFFA806489828A83E0A3F608E3
:10084000DFFA805889828A83E0A3F208DFFA804CBD
:1008500080D280FA80C680D4806980F28033801094
:1008600080A680EA809A80A880DA80E280CA8033FD
:1008700089828A83ECFAE493A3C8C582C8CCC58375
:10088000CCF0A3C8C582C8CCC583CCDFE9DEE78045
:100890000D89828A83E493A3F608DFF9ECFAA9F0C4
:1008A000EDFB2289828A83ECFAE0A3C8C582C8CC1A
:1008B000C583CCF0A3C8C582C8CCC583CCDFEADE33
:1008C000E880DB89828A83E493A3F208DFF980CC95
:1008D00088F0EF60010E4E60C388F0ED2402B4048E
:1008E0000050B9F582EB2402B4040050AF23234535
:0608F00082239008507302
:1008F600EF8DF0A4A8F0CF8CF0A428CE8DF0A42E16
:02090600FE22CF
:10090800BC000BBE0029EF8DF084FFADF022E4CCD3
:10091800F875F008EF2FFFEE33FEEC33FCEE9DEC9C
:10092800984005FCEE9DFE0FD5F0E9E4CEFD22EDE2
:10093800F8F5F0EE8420D21CFEADF075F008EF2F2C
:10094800FFED33FD4007985006D5F0F222C398FD1D
:050958000FD5F0EA22BA
:10095D00BB010A89828A83E0F5F0A3E02250068765
:10096D00F009E71922BBFE07E3F5F009E319228927
:0B097D00828A83E493F5F0740193225A
:10098800BB0110E58229F582E5833AF583E0F5F0AD
:10099800A3E0225009E92582F886F008E622BBFE8A
:1009A8000AE92582F8E2F5F008E222E5832AF583D0
:0809B800E993F5F0A3E9932295
:1009C000BB010A89828A83F0E5F0A3F0225006F782
:0F09D00009A7F01922BBFE06F3E5F009F319227F
:1009DF00F8BB0111E58229F582E5833AF583E8F04A
:1009EF00E5F0A3F0225009E92582C8F608A6F02207
:0D09FF00BBFE09E92582C8F2E5F008F222EE
:100A0C00E88FF0A4CC8BF0A42CFCE98EF0A42CFC89
:100A1C008AF0EDA42CFCEA8EF0A4CDA8F08BF0A407
:100A2C002DCC3825F0FDE98FF0A42CCD35F0FCEB66
:100A3C008EF0A4FEA9F0EB8FF0A4CFC5F02ECD392B
:0F0A4C00FEE43CFCEAA42DCE35F0FDE43CFC2298
:100A5B0075F008758200EF2FFFEE33FECD33CDCC52
:100A6B0033CCC58233C5829BED9AEC99E5829840D5
:100A7B000CF582EE9BFEED9AFDEC99FC0FD5F0D6B2
:100A8B00E4CEFBE4CDFAE4CCF9A88222B800C1B9DC
:100A9B000059BA002DEC8BF084CFCECDFCE5F0CB1A
:100AAB00F97818EF2FFFEE33FEED33FDEC33FCEB53
:100ABB0033FB10D703994004EB99FB0FD8E5E4F90E
:100ACB00FA227818EF2FFFEE33FEED33FDEC33FCFB
:100ADB00C933C910D7059BE99A4007EC9BFCE99AEF
:100AEB00F90FD8E0E4C9FAE4CCFB2275F010EF2F34
:100AFB00FFEE33FEED33FDCC33CCC833C810D70734
:100B0B009BEC9AE899400AED9BFDEC9AFCE899F86E
:0E0B1B000FD5F0DAE4CDFBE4CCFAE4C8F92201
:100FBE00C2D5E830E70FB2D5E4C39BFBE49AFAE45E
:100FCE0099F9E498F8EC30E717B2D5120FF4120A3B
:100FDE0097E4C39BFBE49AFAE499F9E498F880034A
:100FEE00120A9730D50DE4C39FFFE49EFEE49DFDEB
:040FFE00E49CFC2251
:100B2900EB9FF5F0EA9E42F0E99D42F0EC6480C843
:060B390064809845F022E3
:00000001FF
