:03000000020CD21D
:0C0CD200787FE4F6D8FD758142020D1910
:0C0B68008E148F158C168D178A188B19AF
:100B7400751A10E51745167004FE7F0122E516204C
:100B8400E70FE51725E0F517E51633F516151A8076
:100B9400ECE485151E85141DF51CF51BE51725E0F1
:100BA400F517E51633F516E51745167003020C3EE6
:100BB400D3E51A648094805003020C3EAF1EAE1D30
:100BC400AD1CAC1BA804A905AA06AB07120916C0E4
:100BD40006C007AE18AF19AB07AA06E4F9F8D007A8
:100BE400D0061209A1AC00AD01AE02AF038F1E8E78
:100BF4001D8D1C8C1BE51630E730AE14AF15E4FCDC
:100C0400FD120916C006C007AE18AF19AB07AA0635
:100C1400E4F9F8D007D0061209A1AC00AD01AE0288
:100C2400AF038F1E8E1D8D1C8C1BE51725E0F51759
:0E0C3400E51633F516151A020BABAE1DAF1EFA
:010C4200228F
:100F5300ED4C600DAB05AA04120812AE02AF03807C
:010F6300EF9E
:010F6400226A
:040A49008C198D1A5D
:100A4D00E4F51EF51DF51CF51B752201F521F520AC
:100A5D00F51F851A26851925F524F5238F2A8E294C
:100A6D00F528F527AF2AAE29AD28AC27EC4D4E4F12
:100A7D007003020B2CAB2AAA29A928A827AF26AEF2
:100A8D0025AD24AC23120E648F2E8E2D8D2C8C2B28
:100A9D00852232852131852030851F2FAF22AE2151
:100AAD00AD20AC1FAB2EAA2DA92CA82B120916A870
:100ABD0004A905AA06C3E51E9FF522E51D9AF52199
:100ACD00E51C99F520E51B98F51F85321E85311D16
:100ADD0085301C852F1B852A328529318528308547
:100AED00272FAF2AAE29AD28AC27AB2EAA2DA92CC6
:100AFD00A82B120916A804A905AA06C3E5269FF579
:100B0D002AE5259AF529E52499F528E52398F52771
:100B1D00853226853125853024852F23020A71E4FF
:100B2D007F01FEFDFCAB26AA25A924A823D3120A1A
:100B3D00334004E4FEFF22AC1BEC335019E4FCFD02
:100B4D00E51E251AF51EE51D3519F51DED351CF5AE
:0A0B5D001CEC351BF51BAE1DAF1E8E
:010B6700226B
:100EA800EFD3940150037F0022EF64026003BF0375
:100EB800037F0122EF20E0037F0022EF24FFFDE4FF
:100EC80034FFFCEFFB7A007F027E00120B68EF64B0
:0A0ED800014E70037F01227F00220B
:100F6500759850438920758DFD758BFDD28ED2996C
:010F75002259
:080F84008F993099FDC29922FA
:080F8C003098FDC298AF9922D4
:0E0F7600AD07AC06AF04120F84AF05020F8466
:100F3600120F8CEF3395E0EF7D00FC120F8CEF3330
:0C0F460095E0FEEFFDEE4204AE04AF05A6
:010F5200227C
:0A0D5E008F0E8D0F8B108A11891281
:100D68007C007E001208008E138F14E50F24FFFF0D
:100D7800E434FFAD07FCE50E24FFFFE434FFFE1268
:100D880008008E158F16AF907517008F18D3E518C9
:100D98009401E5179400400FAD16AC15AE17120F6D
:100DA80053EF64014E60037F0022AD16AC15AF18F7
:100DB800AE17120A49AB10AA11A912E5138514F04F
:100DC8001208CAAB10AA11A912900002E5178518DB
:0F0DD800F01208E9900004EE8FF01208E97F0195
:010DE70022E9
:100EE2008B358A368937AB38AA39A93A9000021273
:100EF2000892FDACF0120867FBAAF0120B68AB3542
:0A0F0200AA36A937EE8FF00208CAE4
:100F0C008B0E8A0F8910AB11AA12A9139000041230
:100F1C000892FDACF0120867FBAAF0120B68AB0E3E
:0A0F2C00AA0FA910EE8FF00208CA08
:060F9400013C00013B00DE
:100DE800E53CB401028065120F8C8F0C120EA8BF6F
:100DF800010BC2A07F50120F847F0A8026D2A07FE9
:100E080052120F8480E1120F8C8F0D120EA8BF01B1
:100E18000EC2A07F51120F847F0A120F848009D25C
:100E2800A07F52120F8480DE7B007A00793DAD0DE1
:100E3800AF0C120D5EBF0118C2A17F4F120F847F45
:100E48004B120F847F0A120F84753C01E4F53B2294
:0C0E5800D2A17F45120F84120F8C80CCB9
:100C4300120F65C2A0C2A1A2B4E43325E0FFA2B390
:100C5300E4334FFF14600F14602514604B240370BA
:100C6300E6120DE880E1E53C60DDE53B70D9AF407D
:100C7300AE3F120F767F0A120F84753B0180C8E5E1
:100C83003C60C4120F8CEF3395E0F5088F097511A2
:100C93000075120075133D7B007A00790AFE120F6E
:100CA3000CAF0B120F84809FE53C609B120F368EB6
:100CB300088F0975110075120075133D7B007A00CA
:0F0CC300790A120F0CAF0BAE0A120F76020C4A11
:100CDE00020C43E493A3F8E493A34003F68001F2DD
:100CEE0008DFF48029E493A3F85407240CC8C33317
:100CFE00C4540F4420C8834004F456800146F6DFE6
:100D0E00E4800B0102040810204080900F94E47ED2
:100D1E00019360BCA3FF543F30E509541FFEE493DA
:100D2E00A360010ECF54C025E060A840B8E493A3A1
:100D3E00FAE493A3F8E493A3C8C582C8CAC583CACC
:100D4E00F0A3C8C582C8CAC583CADFE9DEE780BE84
:010F9A000056
:10080000EF8DF0A4A8F0CF8CF0A428CE8DF0A42E0C
:02081000FE22C6
:10081200BC000BBE0029EF8DF084FFADF022E4CCCA
:10082200F875F008EF2FFFEE33FEEC33FCEE9DEC93
:10083200984005FCEE9DFE0FD5F0E9E4CEFD22EDD9
:10084200F8F5F0EE8420D21CFEADF075F008EF2F23
:10085200FFED33FD4007985006D5F0F222C398FD14
:050862000FD5F0EA22B1
:10086700BB010A89828A83E0F5F0A3E0225006875C
:10087700F009E71922BBFE07E3F5F009E31922891E
:0B088700828A83E493F5F07401932251
:10089200BB0110E58229F582E5833AF583E0F5F0A4
:1008A200A3E0225009E92582F886F008E622BBFE81
:1008B2000AE92582F8E2F5F008E222E5832AF583C7
:0808C200E993F5F0A3E993228C
:1008CA00BB010A89828A83F0E5F0A3F0225006F779
:0F08DA0009A7F01922BBFE06F3E5F009F3192276
:1008E900F8BB0111E58229F582E5833AF583E8F041
:1008F900E5F0A3F0225009E92582C8F608A6F022FE
:0D090900BBFE09E92582C8F2E5F008F222E4
:10091600E88FF0A4CC8BF0A42CFCE98EF0A42CFC80
:100926008AF0EDA42CFCEA8EF0A4CDA8F08BF0A4FE
:100936002DCC3825F0FDE98FF0A42CCD35F0FCEB5D
:100946008EF0A4FEA9F0EB8FF0A4CFC5F02ECD3922
:0F095600FEE43CFCEAA42DCE35F0FDE43CFC228F
:1009650075F008758200EF2FFFEE33FECD33CDCC49
:1009750033CCC58233C5829BED9AEC99E5829840CC
:100985000CF582EE9BFEED9AFDEC99FC0FD5F0D6A9
:10099500E4CEFBE4CDFAE4CCF9A88222B800C1B9D3
:1009A5000059BA002DEC8BF084CFCECDFCE5F0CB11
:1009B500F97818EF2FFFEE33FEED33FDEC33FCEB4A
:1009C50033FB10D703994004EB99FB0FD8E5E4F905
:1009D500FA227818EF2FFFEE33FEED33FDEC33FCF2
:1009E500C933C910D7059BE99A4007EC9BFCE99AE6
:1009F500F90FD8E0E4C9FAE4CCFB2275F010EF2F2B
:100A0500FFEE33FEED33FDCC33CCC833C810D7072A
:100A15009BEC9AE899400AED9BFDEC9AFCE899F865
:0E0A25000FD5F0DAE4CDFBE4CCFAE4C8F922F8
:100E6400C2D5E830E70FB2D5E4C39BFBE49AFAE4B9
:100E740099F9E498F8EC30E717B2D5120E9A1209F2
:100E8400A1E4C39BFBE49AFAE499F9E498F880039B
:100E94001209A130D50DE4C39FFFE49EFEE49DFD3D
:040EA400E49CFC22AC
:100A3300EB9FF5F0EA9E42F0E99D42F0EC6480C83A
:060A430064809845F022DA
:00000001FF
