:03000000020DC826
:0C0DC800787FE4F6D8FD758142020E0F22
:0C0C5E008E148F158C168D178A188B19B8
:100C6A00751A10E51745167004FE7F0122E5162055
:100C7A00E70FE51725E0F517E51633F516151A807F
:100C8A00ECE485151E85141DF51CF51BE51725E0FA
:100C9A00F517E51633F516E51745167003020D34F8
:100CAA00D3E51A648094805003020D34AF1EAE1D42
:100CBA00AD1CAC1BA804A905AA06AB07120A0CC0F6
:100CCA0006C007AE18AF19AB07AA06E4F9F8D007B1
:100CDA00D006120A97AC00AD01AE02AF038F1E8E8A
:100CEA001D8D1C8C1BE51630E730AE14AF15E4FCE5
:100CFA00FD120A0CC006C007AE18AF19AB07AA0648
:100D0A00E4F9F8D007D006120A97AC00AD01AE029A
:100D1A00AF038F1E8E1D8D1C8C1BE51725E0F51762
:0E0D2A00E51633F516151A020CA1AE1DAF1E0C
:010D38002298
:1010D600ED4C600DAB05AA04120908AE02AF038001
:0110E600EF1A
:0110E70022E6
:040B3F008C198D1A66
:100B4300E4F51EF51DF51CF51B752201F521F520B5
:100B5300F51F851A26851925F524F5238F2A8E2955
:100B6300F528F527AF2AAE29AD28AC27EC4D4E4F1B
:100B73007003020C22AB2AAA29A928A827AF26AE04
:100B830025AD24AC23120FE78F2E8E2D8D2C8C2BAD
:100B9300852232852131852030851F2FAF22AE215A
:100BA300AD20AC1FAB2EAA2DA92CA82B120A0CA882
:100BB30004A905AA06C3E51E9FF522E51D9AF521A2
:100BC300E51C99F520E51B98F51F85321E85311D1F
:100BD30085301C852F1B852A328529318528308550
:100BE300272FAF2AAE29AD28AC27AB2EAA2DA92CCF
:100BF300A82B120A0CA804A905AA06C3E5269FF58B
:100C03002AE5259AF529E52499F528E52398F5277A
:100C1300853226853125853024852F23020B67E411
:100C23007F01FEFDFCAB26AA25A924A823D3120B22
:100C3300294004E4FEFF22AC1BEC335019E4FCFD15
:100C4300E51E251AF51EE51D3519F51DED351CF5B7
:0A0C53001CEC351BF51BAE1DAF1E97
:010C5D002274
:10102B00EFD3940150037F0022EF64026003BF03F0
:10103B00037F0122EF20E0037F0022EF24FFFDE47A
:10104B0034FFFCEFFB7A007F027E00120C5EEF6434
:0A105B00014E70037F01227F002286
:03111E00000000CE
:1010E800759850438920758DFD758BFDD28ED299E8
:0110F80022D5
:081107008F993099FDC2992275
:08110F003098FDC298AF99224F
:0E10F900AD07AC06AF04121107AF05021107D8
:1010B90012110FEF3395E0EF7D00FC12110FEF33A2
:0C10C90095E0FEEFFDEE4204AE04AF0522
:0110D50022F8
:100EDE00E4FE780E7C00FD7BFF7A11791E7F0312F3
:100EEE0008D0E4FDFCFE12110F8F11E511640D60A8
:100EFE0005E511B40A05EE7011FF22E51124D0FFAD
:100F0E00740E2EF8A6070EBE03DCBE01067C00ADE5
:100F1E000E8035BE0211E50E75F00AA47C00250F79
:100F2E00FDEC35F0FC8021BE031EE50F75F00AA422
:100F3E00FDACF0E50E75F064A42DFFE5F03CFE7CF3
:100F4E0000EF2510FDEC3EFCD3ED94FFEC94004039
:070F5E00047FFF8002AF05D4
:010F65002269
:0A0E54008F0E8D0F8B108A1189128A
:100E5E007C007E001208F68E138F14E50F24FFFF20
:100E6E00E434FFAD07FCE50E24FFFFE434FFFE1271
:100E7E0008F68E158F16AF907517008F18D3E518DC
:100E8E009401E5179400400FAD16AC15AE17121075
:100E9E00D6EF64014E60037F0022AD16AC15AF187D
:100EAE00AE17120B3FAB10AA11A912E5138514F061
:100EBE001209C0AB10AA11A912900002E5178518ED
:0F0ECE00F01209DF900004EE8FF01209DF7F01B0
:010EDD0022F2
:101065008B358A368937AB38AA39A93A90000212EE
:101075000988FDACF012095DFBAAF0120C5EAB35D8
:0A108500AA36A937EE8FF00209C069
:10108F008B0E8A0F8910AB11AA12A91390000412AC
:10109F000988FDACF012095DFBAAF0120C5EAB0ED5
:0A10AF00AA0FA910EE8FF00209C08D
:06111700013C00013B0059
:100F6600E53CB40102806A120EDE8F0C850C80AF60
:100F76000C12102BBF010BC2A07F501211077F0A63
:100F86008026D2A07F5212110780DC120EDE8F0D52
:100F960012102BBF010EC2A07F511211077F0A1239
:100FA60011078009D2A07F5212110780DE7B007ADA
:100FB60000793DAD0DAF0C120E54BF0118C2A17FD2
:100FC6004F1211077F4B1211077F0A121107753C4A
:100FD60001E4F53B22D2A17F4512110712110F80C1
:010FE600CC3E
:100D39001210E8C2A0C2A1A2B4E43325E0FFA2B315
:100D4900E4334FFF14600F14602514604B240370C3
:100D5900E6120F6680E1E53C60DDE53B70D9AF4006
:100D6900AE3F1210F97F0A121107753B0180C8E5E1
:100D79003C60C412110FEF3395E0F5088F09751126
:100D89000075120075133D7B007A00790AFE121076
:100D99008FAF0B121107809FE53C609B1210B98E33
:100DA900088F0975110075120075133D7B007A00D3
:0F0DB900790A12108FAF0BAE0A1210F9020D401B
:100DD400020D39E493A3F8E493A34003F68001F2EF
:100DE40008DFF48029E493A3F85407240CC8C33320
:100DF400C4540F4420C8834004F456800146F6DFEF
:100E0400E4800B0102040810204080901117E47E56
:100E1400019360BCA3FF543F30E509541FFEE493E3
:100E2400A360010ECF54C025E060A840B8E493A3AA
:100E3400FAE493A3F8E493A3C8C582C8CAC583CAD5
:100E4400F0A3C8C582C8CAC583CADFE9DEE780BE8D
:01111D0000D1
:10080000E709F608DFFA8046E709F208DFFA803EDA
:1008100088828C83E709F0A3DFFA8032E309F608C7
:10082000DFFA8078E309F208DFFA807088828C832F
:10083000E309F0A3DFFA806489828A83E0A3F608E3
:10084000DFFA805889828A83E0A3F208DFFA804CBD
:1008500080D280FA80C680D4806980F28033801094
:1008600080A680EA809A80A880DA80E280CA8033FD
:1008700089828A83ECFAE493A3C8C582C8CCC58375
:10088000CCF0A3C8C582C8CCC583CCDFE9DEE78045
:100890000D89828A83E493A3F608DFF9ECFAA9F0C4
:1008A000EDFB2289828A83ECFAE0A3C8C582C8CC1A
:1008B000C583CCF0A3C8C582C8CCC583CCDFEADE33
:1008C000E880DB89828A83E493A3F208DFF980CC95
:1008D00088F0EF60010E4E60C388F0ED2402B4048E
:1008E0000050B9F582EB2402B4040050AF23234535
:0608F00082239008507302
:1008F600EF8DF0A4A8F0CF8CF0A428CE8DF0A42E16
:02090600FE22CF
:10090800BC000BBE0029EF8DF084FFADF022E4CCD3
:10091800F875F008EF2FFFEE33FEEC33FCEE9DEC9C
:10092800984005FCEE9DFE0FD5F0E9E4CEFD22EDE2
:10093800F8F5F0EE8420D21CFEADF075F008EF2F2C
:10094800FFED33FD4007985006D5F0F222C398FD1D
:050958000FD5F0EA22BA
:10095D00BB010A89828A83E0F5F0A3E02250068765
:10096D00F009E71922BBFE07E3F5F009E319228927
:0B097D00828A83E493F5F0740193225A
:10098800BB0110E58229F582E5833AF583E0F5F0AD
:10099800A3E0225009E92582F886F008E622BBFE8A
:1009A8000AE92582F8E2F5F008E222E5832AF583D0
:0809B800E993F5F0A3E9932295
:1009C000BB010A89828A83F0E5F0A3F0225006F782
:0F09D00009A7F01922BBFE06F3E5F009F319227F
:1009DF00F8BB0111E58229F582E5833AF583E8F04A
:1009EF00E5F0A3F0225009E92582C8F608A6F02207
:0D09FF00BBFE09E92582C8F2E5F008F222EE
:100A0C00E88FF0A4CC8BF0A42CFCE98EF0A42CFC89
:100A1C008AF0EDA42CFCEA8EF0A4CDA8F08BF0A407
:100A2C002DCC3825F0FDE98FF0A42CCD35F0FCEB66
:100A3C008EF0A4FEA9F0EB8FF0A4CFC5F02ECD392B
:0F0A4C00FEE43CFCEAA42DCE35F0FDE43CFC2298
:100A5B0075F008758200EF2FFFEE33FECD33CDCC52
:100A6B0033CCC58233C5829BED9AEC99E5829840D5
:100A7B000CF582EE9BFEED9AFDEC99FC0FD5F0D6B2
:100A8B00E4CEFBE4CDFAE4CCF9A88222B800C1B9DC
:100A9B000059BA002DEC8BF084CFCECDFCE5F0CB1A
:100AAB00F97818EF2FFFEE33FEED33FDEC33FCEB53
:100ABB0033FB10D703994004EB99FB0FD8E5E4F90E
:100ACB00FA227818EF2FFFEE33FEED33FDEC33FCFB
:100ADB00C933C910D7059BE99A4007EC9BFCE99AEF
:100AEB00F90FD8E0E4C9FAE4CCFB2275F010EF2F34
:100AFB00FFEE33FEED33FDCC33CCC833C810D70734
:100B0B009BEC9AE899400AED9BFDEC9AFCE899F86E
:0E0B1B000FD5F0DAE4CDFBE4CCFAE4C8F92201
:100FE700C2D5E830E70FB2D5E4C39BFBE49AFAE435
:100FF70099F9E498F8EC30E717B2D512101D120AE8
:1010070097E4C39BFBE49AFAE499F9E498F8800320
:10101700120A9730D50DE4C39FFFE49EFEE49DFDC1
:04102700E49CFC2227
:100B2900EB9FF5F0EA9E42F0E99D42F0EC6480C843
:060B390064809845F022E3
:00000001FF
